:02000000CA290B
:0C000600831221088A00200882000800F4
:100012008312A901AA01AB01AC0185193C28003069
:100022002C02031D1E2800302B02031D1E28003047
:100032002A02031D1E28B430290203183C2829086D
:10004200D0002A08D1002B08D2002C08D300D00AF5
:100052000319D10A0319D20A0319D30A5008A900B5
:100062005108AA005208AB005308AC000D30DD0065
:10007200DD0B39280E28A901AA01AB01AC01851DAF
:100082006E2800302C02031D502800302B02031D65
:10009200502800302A02031D50285A302902031822
:1000A2006E282908D0002A08D1002B08D2002C087B
:1000B200D300D00A0319D10A0319D20A0319D30AA9
:1000C2005008A9005108AA005208AB005308AC001E
:1000D2000D30DD00DD0B6B284028D501D601D7019C
:1000E200D80100305802031D802800305702031D3A
:1000F200802800305602031D802820305502031844
:10010200BB29A901AA01AB01AC018519B6280030AF
:100112002C02031D962800302B02031D9628003066
:100122002A02031D96280F3029020318B62829082F
:10013200D0002A08D1002B08D2002C08D300D00A04
:100142000319D10A0319D20A0319D30A5008A900C4
:100152005108AA005208AB005308AC000930DD0078
:10016200DD0BB1280000000086282C08003C031D8E
:10017200C4282B08003C031DC4282A08003C031D88
:10018200C42829080E3C031CD72800302C02031D6A
:10019200D42800302B02031DD42800302A02031D6C
:1001A200D42802302902031CD728D928D001BD291E
:1001B200A901AA01AB01AC01851D0D2900302C0259
:1001C200031DED2800302B02031DED2800302A020A
:1001D200031DED281E30290203180D292908D0001D
:1001E2002A08D1002B08D2002C08D300D00A031908
:1001F200D10A0319D20A0319D30A5008A9005108D7
:10020200AA005208AB005308AC000930DD00DD0B38
:10021200082900000000DD282C08003C031D1B29D2
:100222002B08003C031D1B292A08003C031D1B2927
:1002320029081D3C031C2E2900302C02031D2B29EA
:1002420000302B02031D2B2900302A02031D2B290B
:1002520004302902031C2E293029D001BD292C0883
:10026200003C031D3E292B08003C031D3E292A08A1
:10027200003C031D3E292908143C031870291F3035
:10028200D000D101D201D3015508D0025608031C77
:10029200560FD1025708031C570FD2025808031CED
:1002A200580FD3025008D4000130D0000030D100E2
:1002B2000030D2000030D300540803196729D00D52
:1002C200D10DD20DD30D5010FF3E5E295008A5046A
:1002D2005108A6045208A7045308A804A3291F30F2
:1002E200D000D101D201D3015508D0025608031C17
:1002F200560FD1025708031C570FD2025808031C8D
:10030200580FD3025008D4000130D0000030D10081
:100312000030D2000030D300540803199729D00DC1
:10032200D10DD20DD30D5010FF3E8E29D009D10927
:10033200D209D3095008A5055108A6055208A705F8
:100342005308A8055508D0005608D1005708D20016
:100352005808D300D00A0319D10A0319D20A031983
:10036200D30A5008D5005108D6005208D7005308C6
:0A037200D80072280130D000080006
:10037C0003208A110A128000840AA00A0319A10A18
:08038C00D003031DBE29080087
:1003940083169F0107308312990008308316850065
:1003A40080308100831205150630DB001330DC0039
:1003B400AD30DD00DD0BDC29DC0BDC29DB0BDC29BB
:1003C4000000000005110630DB001330DC00AD3006
:1003D400DD00DD0BEB29DC0BEB29DB0BEB2900004B
:1003E4000000092050080319172A2708D0002808FC
:1003F400D100D201D3015008A2005108A30026085D
:10040400D0002708D1002808D200D3015008A40046
:100414000F2A0515172A0511172A2408683A031903
:0E0424000B2A2408303A03190D2AF329182A4E
:02400E009431EB
:00000001FF
