:02000000102AC4
:0C000600831221088A00200882000800F4
:100012008312A901AA01AB01AC0185193C28003069
:100022002C02031D1E2800302B02031D1E28003047
:100032002A02031D1E28B430290203183C2829086D
:10004200D0002A08D1002B08D2002C08D300D00AF5
:100052000319D10A0319D20A0319D30A5008A900B5
:100062005108AA005208AB005308AC000D30DD0065
:10007200DD0B39280E282C08003C031D4A282B08CA
:10008200003C031D4A282A08003C031D4A2829086F
:10009200B33C031C5D2800302C02031D5A2800309B
:1000A2002B02031D5A2800302A02031D5A28503001
:1000B2002902031C5D285F28D001032AA901AA0195
:1000C200AB01AC01851D912800302C02031D732861
:1000D20000302B02031D732800302A02031D7328EF
:1000E2005A302902031891282908D0002A08D10081
:1000F2002B08D2002C08D300D00A0319D10A031905
:10010200D20A0319D30A5008A9005108AA005208BA
:10011200AB005308AC000D30DD00DD0B8E286328E8
:100122002C08003C031D9F282B08003C031D9F2820
:100132002A08003C031D9F282908593C031CB228A9
:1001420000302C02031DAF2800302B02031DAF2804
:1001520000302A02031DAF280A302902031CB228EC
:10016200B428D001032AD501D601D701D801003025
:100172005802031DC62800305702031DC62800304E
:100182005602031DC628203055020318012AA90170
:10019200AA01AB01AC018519FC2800302C02031D19
:1001A200DC2800302B02031DDC2800302A02031D4C
:1001B200DC280A3029020318FC282908D0002A0862
:1001C200D1002B08D2002C08D300D00A0319D10A7F
:1001D2000319D20A0319D30A5008A9005108AA0028
:1001E2005208AB005308AC000930DD00DD0BF728E4
:1001F20000000000CC282C08003C031D0A292B0813
:10020200003C031D0A292A08003C031D0A2929086B
:10021200093C031C1D2900302C02031D1A29003041
:100222002B02031D1A2900302A02031D1A2902304B
:100232002902031C1D291F29D001032AA901AA0191
:10024200AB01AC01851D532900302C02031D33295B
:1002520000302B02031D332900302A02031D3329EB
:100262001E302902031853292908D0002A08D10078
:100272002B08D2002C08D300D00A0319D10A031983
:10028200D20A0319D30A5008A9005108AA00520839
:10029200AB005308AC000930DD00DD0B4E29000035
:1002A200000023292C08003C031D61292B08003C77
:1002B200031D61292A08003C031D612929081D3CF0
:1002C200031C742900302C02031D712900302B02FB
:1002D200031D712900302A02031D712904302902ED
:1002E200031C74297629D001032A2C08003C031D23
:1002F20084292B08003C031D84292A08003C031D85
:1003020084292908143C0318B6291F30D000D101D2
:10031200D201D3015508D0025608031C560FD10250
:100322005708031C570FD2025808031C580FD30258
:100332005008D4000130D0000030D1000030D2008B
:100342000030D30054080319AD29D00DD10DD20DC0
:10035200D30D5010FF3EA4295008A5045108A6044D
:100362005208A7045308A804E9291F30D000D1017C
:10037200D201D3015508D0025608031C560FD102F0
:100382005708031C570FD2025808031C580FD302F8
:100392005008D4000130D0000030D1000030D2002B
:1003A2000030D30054080319DD29D00DD10DD20D30
:1003B200D30D5010FF3ED429D009D109D209D30957
:1003C2005008A5055108A6055208A7055308A80517
:1003D2005508D0005608D1005708D2005808D3005B
:1003E200D00A0319D10A0319D20A0319D30A5008F1
:1003F200D5005108D6005208D7005308D800B828B3
:060402000130D0000800EB
:1004080003208A110A128000840AA00A0319A10A8B
:08041800D003031D042A0800B3
:1004200083169F01073083129900083083168500D8
:1004300080308100831205150630DB001330DC00AC
:10044000AD30DD00DD0B222ADC0B222ADB0B222A59
:100450000000000005110630DB001330DC00AD3079
:10046000DD00DD0B312ADC0B312ADB0B312A0000E9
:1004700000000920500803195D2A2708D000280829
:10048000D100D201D3015008A2005108A3002608D0
:10049000D0002708D1002808D200D3015008A400BA
:1004A000552A05155D2A05115D2A2408483A0319C5
:0E04B000512A2408803A0319532A392A5E2A59
:02400E00D431AB
:00000001FF
