:02000000B72B1C
:0A00060000000000000000000800E8
:10001000423083120313FD00FD0B0C280000080082
:100020001D3083120313FC009130FD00FD0B1628D8
:06003000FC0B162808007D
:1000360083120313D51B2128881322288817551BE2
:100046002628081327280817D51A2B2888122C28A3
:100056008816551A302808123128081646183528E9
:10006600881436288810881503208811D5193D284C
:1000760088133E288817551942280813432808175D
:10008600D518472888124828881655184C2808126B
:100096004D280816461851288814522888108815A5
:1000A60003208811461C592810205A2808200800C9
:1000B6008312031346105408D5001B20461408006B
:0E00C6008312031341088A00400882000800DC
:1000D40083160313881188100812881208138813D2
:1000E40083128811881088130813881208121020AC
:1000F4001020102088160816881503208811102057
:1001040088150320881110208815032088111020D9
:1001140008128815032088111020881503208811DF
:100124008812881788150320881110208813081650
:1001340088150320881108128815032088111020BF
:1001440088150320881108168815032088111020AB
:1001540008128815032088118817081788160816AE
:0C016400881503208811102046140800A4
:10017000831203135108F000F00CF013F00CF0138D
:10018000F00CF013F00CF0130030F1007930F007B0
:1001900004300318013EF1077008C0007108C10067
:1001A00063208A110A12F00052088400700880004F
:1001B000520AF2000F305105F0000030F1007930A2
:1001C000F00704300318013EF1077008C000710801
:1001D000C10063208A110A12F000720884007008BE
:1001E000800002305207F2005008F000F00CF013CB
:1001F000F00CF013F00CF013F00CF0130030F100E1
:100200007930F00704300318013EF1077008C00090
:100210007108C10063208A110A12F000720884007C
:100220007008800003305207F2000F305005F000D4
:100230000030F1007930F00704300318013EF10777
:100240007008C0007108C10063208A110A12F00012
:100250007208840070088000043052078400800116
:02026000080094
:10026200831203135008F000F00CF013F00CF0139B
:10027200F00CF013F00CF0130030F1007930F007BD
:1002820004300318013EF1077008C0007108C10074
:1002920063208A110A12F00051088400700880005D
:1002A200510AF2000F305005F0000030F1007930B1
:1002B200F00704300318013EF1077008C00071080E
:1002C200C10063208A110A12F000720884007008CB
:0C02D20080000230510784008001080009
:1002DE0083120313D001D101D201D3010618A42930
:1002EE005308003C031D85295208003C031D852937
:1002FE005108003C031D85295008B43C031CA42959
:10030E005008F0005108F1005208F2005308F300B3
:10031E00F00A0319F10A0319F20A0319F30A700815
:10032E00D0007108D1007208D2007308D300423099
:10033E00FD00FD0BA029000075295308003C031D8C
:10034E00B2295208003C031DB2295108003C031D7E
:10035E00B2295008B33C031CC52900305302031DBB
:10036E00C22900305202031DC22900305102031D62
:10037E00C22978305002031CC529C729F0016A2B07
:10038E00D001D101D201D301061CFA295308003C39
:10039E00031DDB295208003C031DDB295108003CDC
:1003AE00031DDB2950085A3C031CFA295008F000A3
:1003BE005108F1005208F2005308F300F00A031935
:1003CE00F10A0319F20A0319F30A7008D000710832
:1003DE00D1007208D2007308D3004230FD00FD0B2D
:1003EE00F6290000CB295308003C031D082A5208A9
:1003FE00003C031D082A5108003C031D082A500822
:10040E00593C031C1B2A00305302031D182A0030CE
:10041E005202031D182A00305102031D182A2830DB
:10042E005002031C1B2A1D2AF0016A2BF501F6014E
:10043E00F701F80100307802031D2F2A00307702F1
:10044E00031D2F2A00307602031D2F2A203075023D
:10045E000318682BD001D101D201D3010618642AEA
:10046E005308003C031D452A5208003C031D452A33
:10047E005108003C031D452A5008173C031C642AF2
:10048E005008F0005108F1005208F2005308F30032
:10049E00F00A0319F10A0319F20A0319F30A700894
:1004AE00D0007108D1007208D2007308D300423018
:1004BE00FD00FD0B602A0000352A5308003C031D89
:1004CE00722A5208003C031D722A5108003C031D7B
:1004DE00722A5008163C031C852A00305302031D55
:1004EE00822A00305202031D822A00305102031D5F
:1004FE00822A04305002031C852A872AF0016A2BB7
:10050E00D001D101D201D301061CBA2A5308003CF6
:10051E00031D9B2A5208003C031D9B2A5108003CD8
:10052E00031D9B2A50082D3C031CBA2A5008F000CC
:10053E005108F1005208F2005308F300F00A0319B3
:10054E00F10A0319F20A0319F30A7008D0007108B0
:10055E00D1007208D2007308D3004230FD00FD0BAB
:10056E00B62A00008B2A5308003C031DC82A5208E5
:10057E00003C031DC82A5108003C031DC82A500820
:10058E002C3C031CDB2A00305302031DD82A0030FA
:10059E005202031DD82A00305102031DD82A0830FA
:1005AE005002031CDB2ADD2AF0016A2B5308003CA3
:1005BE00031DEB2A5208003C031DEB2A5108003C98
:1005CE00031DEB2A5008153C03181D2B1F30F0009D
:1005DE00F101F201F3017508F0027608031C760FA3
:1005EE00F1027708031C770FF2027808031C780FCC
:1005FE00F3027008F4000130F0000030F10000301A
:10060E00F2000030F30074080319142BF00DF10DF5
:10061E00F20DF30D7010FF3E0B2B7008C70471081E
:10062E00C8047208C9047308CA04502B1F30F000A6
:10063E00F101F201F3017508F0027608031C760F42
:10064E00F1027708031C770FF2027808031C780F6B
:10065E00F3027008F4000130F0000030F1000030B9
:10066E00F2000030F30074080319442BF00DF10D65
:10067E00F20DF30D7010FF3E3B2BF009F109F2095C
:10068E00F3097008C7057108C8057208C905730813
:10069E00CA057508F0007608F1007708F2007808B0
:1006AE00F300F00A0319F10A0319F20A0319F30A07
:1006BE007008F5007108F6007208F7007308F8006C
:0806CE00212A0130F0000800B0
:1006D60063208A110A128000840AC00A0319C10A1B
:0806E600F003031D6B2B08005B
:1006EE00892B803083120313D0009C2BC030D00096
:1006FE009C2B9430D0009C2BD430D0009C2B80307F
:10070E00D0009C2B831203135008013A0319782B47
:10071E005008023A03197D2B5008033A0319802B17
:10072E005008043A0319832B862B5103F00050080E
:10073E00F0077008D0007008D5001B204610D301BA
:10074E0053085207840000080319B52B53085207AB
:10075E0084000008D4005B20D30AA72B461408009F
:10076E00433083120313A0006F30A1006D30A2003E
:10077E003A30A3003030A4007830A5003030A60007
:10078E003030A7002030A8004930A9006E30AA00F2
:10079E003A30AB003030AC007830AD003030AE00C7
:1007AE003030AF00B0014130B1006430B20064307F
:1007BE00B3007230B4006530B5007330B6007330DC
:1007CE00B7003A30B8003030B9007830BA00303067
:1007DE00BB003030BC003030BD003030BE00BF0139
:1007EE008316061487126A200130D5001B200C30A8
:1007FE00D5001B200130D0000130D1003130D200A5
:10080E0077230230D0000130D1002030D200772380
:10081E0087161530FB004B30FC00BE30FD00FD0B83
:10082E00162CFC0B162CFB0B162C00008712153009
:10083E00FB004B30FC00BE30FD00FD0B242CFC0BEE
:10084E00242CFB0B242C00006F2170080319772C2D
:10085E004908F5004A08F600F701F8017508C200CC
:10086E007608C3004808F0004908F1004A08F20073
:10087E00F3017008C5004708C4007508D00076085B
:10088E00D1004B30D200B8200130D0000B30D10057
:10089E004B30D20077234508D0004B30D1003121A8
:1008AE000230D0000730D1004B30D20077234408FD
:1008BE00D0004B30D10031210230D0000F30D100AA
:1008CE004B30D20077236F2C8716772C8712772C1C
:1008DE004508483A03196B2C4508803A03196D2CCC
:0408EE002B2C782C0B
:1008F20030343134323433343434353436343734BA
:10090200383439344134423443344434453446343F
:02400E004A2F37
:00000001FF
